{
  "_format": "hh-sol-artifact-1",
  "contractName": "CrowdFunding",
  "sourceName": "contracts/CrowdFunding.sol",
  "abi": [
    {
      "anonymous": false,
      "inputs": [
        {
          "indexed": true,
          "internalType": "uint256",
          "name": "id",
          "type": "uint256"
        },
        {
          "indexed": false,
          "internalType": "address",
          "name": "creator",
          "type": "address"
        }
      ],
      "name": "CampaignCreated",
      "type": "event"
    },
    {
      "anonymous": false,
      "inputs": [
        {
          "indexed": true,
          "internalType": "uint256",
          "name": "id",
          "type": "uint256"
        },
        {
          "indexed": false,
          "internalType": "address",
          "name": "donor",
          "type": "address"
        },
        {
          "indexed": false,
          "internalType": "uint256",
          "name": "amount",
          "type": "uint256"
        }
      ],
      "name": "DonationReceived",
      "type": "event"
    },
    {
      "anonymous": false,
      "inputs": [
        {
          "indexed": true,
          "internalType": "uint256",
          "name": "id",
          "type": "uint256"
        },
        {
          "indexed": false,
          "internalType": "address",
          "name": "creator",
          "type": "address"
        },
        {
          "indexed": false,
          "internalType": "uint256",
          "name": "amount",
          "type": "uint256"
        }
      ],
      "name": "FundsWithdrawn",
      "type": "event"
    },
    {
      "anonymous": false,
      "inputs": [
        {
          "indexed": true,
          "internalType": "uint256",
          "name": "id",
          "type": "uint256"
        },
        {
          "indexed": false,
          "internalType": "address",
          "name": "donor",
          "type": "address"
        },
        {
          "indexed": false,
          "internalType": "uint256",
          "name": "amount",
          "type": "uint256"
        }
      ],
      "name": "Refunded",
      "type": "event"
    },
    {
      "inputs": [
        {
          "internalType": "uint256",
          "name": "",
          "type": "uint256"
        }
      ],
      "name": "campaigns",
      "outputs": [
        {
          "internalType": "address payable",
          "name": "creator",
          "type": "address"
        },
        {
          "internalType": "string",
          "name": "title",
          "type": "string"
        },
        {
          "internalType": "string",
          "name": "description",
          "type": "string"
        },
        {
          "internalType": "uint256",
          "name": "targetAmount",
          "type": "uint256"
        },
        {
          "internalType": "uint256",
          "name": "deadline",
          "type": "uint256"
        },
        {
          "internalType": "uint256",
          "name": "amountCollected",
          "type": "uint256"
        },
        {
          "internalType": "bool",
          "name": "isClosed",
          "type": "bool"
        }
      ],
      "stateMutability": "view",
      "type": "function"
    },
    {
      "inputs": [
        {
          "internalType": "string",
          "name": "_title",
          "type": "string"
        },
        {
          "internalType": "string",
          "name": "_description",
          "type": "string"
        },
        {
          "internalType": "uint256",
          "name": "_targetAmount",
          "type": "uint256"
        },
        {
          "internalType": "uint256",
          "name": "_deadline",
          "type": "uint256"
        }
      ],
      "name": "createCampaign",
      "outputs": [
        {
          "internalType": "uint256",
          "name": "",
          "type": "uint256"
        }
      ],
      "stateMutability": "nonpayable",
      "type": "function"
    },
    {
      "inputs": [
        {
          "internalType": "uint256",
          "name": "_campaignId",
          "type": "uint256"
        }
      ],
      "name": "donateToCampaign",
      "outputs": [],
      "stateMutability": "payable",
      "type": "function"
    },
    {
      "inputs": [
        {
          "internalType": "uint256",
          "name": "",
          "type": "uint256"
        },
        {
          "internalType": "address",
          "name": "",
          "type": "address"
        }
      ],
      "name": "donations",
      "outputs": [
        {
          "internalType": "uint256",
          "name": "",
          "type": "uint256"
        }
      ],
      "stateMutability": "view",
      "type": "function"
    },
    {
      "inputs": [],
      "name": "getAllCampaigns",
      "outputs": [
        {
          "components": [
            {
              "internalType": "address payable",
              "name": "creator",
              "type": "address"
            },
            {
              "internalType": "string",
              "name": "title",
              "type": "string"
            },
            {
              "internalType": "string",
              "name": "description",
              "type": "string"
            },
            {
              "internalType": "uint256",
              "name": "targetAmount",
              "type": "uint256"
            },
            {
              "internalType": "uint256",
              "name": "deadline",
              "type": "uint256"
            },
            {
              "internalType": "uint256",
              "name": "amountCollected",
              "type": "uint256"
            },
            {
              "internalType": "bool",
              "name": "isClosed",
              "type": "bool"
            }
          ],
          "internalType": "struct CrowdFunding.Campaign[]",
          "name": "",
          "type": "tuple[]"
        }
      ],
      "stateMutability": "view",
      "type": "function"
    },
    {
      "inputs": [
        {
          "internalType": "uint256",
          "name": "_campaignId",
          "type": "uint256"
        }
      ],
      "name": "getCampaign",
      "outputs": [
        {
          "internalType": "address",
          "name": "creator",
          "type": "address"
        },
        {
          "internalType": "string",
          "name": "title",
          "type": "string"
        },
        {
          "internalType": "string",
          "name": "description",
          "type": "string"
        },
        {
          "internalType": "uint256",
          "name": "targetAmount",
          "type": "uint256"
        },
        {
          "internalType": "uint256",
          "name": "deadline",
          "type": "uint256"
        },
        {
          "internalType": "uint256",
          "name": "amountCollected",
          "type": "uint256"
        },
        {
          "internalType": "bool",
          "name": "isClosed",
          "type": "bool"
        }
      ],
      "stateMutability": "view",
      "type": "function"
    },
    {
      "inputs": [
        {
          "internalType": "uint256",
          "name": "_campaignId",
          "type": "uint256"
        },
        {
          "internalType": "address",
          "name": "_donor",
          "type": "address"
        }
      ],
      "name": "getDonation",
      "outputs": [
        {
          "internalType": "uint256",
          "name": "",
          "type": "uint256"
        }
      ],
      "stateMutability": "view",
      "type": "function"
    },
    {
      "inputs": [],
      "name": "numberOfCampaigns",
      "outputs": [
        {
          "internalType": "uint256",
          "name": "",
          "type": "uint256"
        }
      ],
      "stateMutability": "view",
      "type": "function"
    },
    {
      "inputs": [
        {
          "internalType": "uint256",
          "name": "_campaignId",
          "type": "uint256"
        }
      ],
      "name": "refund",
      "outputs": [],
      "stateMutability": "nonpayable",
      "type": "function"
    },
    {
      "inputs": [
        {
          "internalType": "uint256",
          "name": "_campaignId",
          "type": "uint256"
        }
      ],
      "name": "withdrawFunds",
      "outputs": [],
      "stateMutability": "nonpayable",
      "type": "function"
    }
  ],
  "bytecode": "0x608060405260008055348015601357600080fd5b506125f3806100236000396000f3fe6080604052600436106100915760003560e01c80635598f8cc116100595780635598f8cc1461017257806386cdf604146101b5578063a318f269146101e0578063c2bacfa81461021d578063ee1554a31461025a57610091565b806307ca140d14610096578063141961bc146100c1578063155dd5ee14610104578063278ecde11461012d57806342a4fda814610156575b600080fd5b3480156100a257600080fd5b506100ab610297565b6040516100b891906113a8565b60405180910390f35b3480156100cd57600080fd5b506100e860048036038101906100e39190611403565b61029d565b6040516100fb979695949392919061151c565b60405180910390f35b34801561011057600080fd5b5061012b60048036038101906101269190611403565b61041c565b005b34801561013957600080fd5b50610154600480360381019061014f9190611403565b610753565b005b610170600480360381019061016b9190611403565b610a1b565b005b34801561017e57600080fd5b5061019960048036038101906101949190611403565b610c33565b6040516101ac97969594939291906115ba565b60405180910390f35b3480156101c157600080fd5b506101ca610e1b565b6040516101d79190611813565b60405180910390f35b3480156101ec57600080fd5b506102076004803603810190610202919061196a565b611087565b60405161021491906113a8565b60405180910390f35b34801561022957600080fd5b50610244600480360381019061023f9190611a35565b611274565b60405161025191906113a8565b60405180910390f35b34801561026657600080fd5b50610281600480360381019061027c9190611a35565b611315565b60405161028e91906113a8565b60405180910390f35b60005481565b60016020528060005260406000206000915090508060000160009054906101000a900473ffffffffffffffffffffffffffffffffffffffff16908060010180546102e690611aa4565b80601f016020809104026020016040519081016040528092919081815260200182805461031290611aa4565b801561035f5780601f106103345761010080835404028352916020019161035f565b820191906000526020600020905b81548152906001019060200180831161034257829003601f168201915b50505050509080600201805461037490611aa4565b80601f01602080910402602001604051908101604052809291908181526020018280546103a090611aa4565b80156103ed5780601f106103c2576101008083540402835291602001916103ed565b820191906000526020600020905b8154815290600101906020018083116103d057829003601f168201915b5050505050908060030154908060040154908060050154908060060160009054906101000a900460ff16905087565b806000548110610461576040517f08c379a000000000000000000000000000000000000000000000000000000000815260040161045890611b21565b60405180910390fd5b60006001600084815260200190815260200160002090503373ffffffffffffffffffffffffffffffffffffffff168160000160009054906101000a900473ffffffffffffffffffffffffffffffffffffffff1673ffffffffffffffffffffffffffffffffffffffff161461050a576040517f08c379a000000000000000000000000000000000000000000000000000000000815260040161050190611b8d565b60405180910390fd5b8060040154421015610551576040517f08c379a000000000000000000000000000000000000000000000000000000000815260040161054890611bf9565b60405180910390fd5b8060060160009054906101000a900460ff16156105a3576040517f08c379a000000000000000000000000000000000000000000000000000000000815260040161059a90611c65565b60405180910390fd5b8060030154816005015410156105ee576040517f08c379a00000000000000000000000000000000000000000000000000000000081526004016105e590611cd1565b60405180910390fd5b6000816005015490506000826005018190555060018260060160006101000a81548160ff02191690831515021790555060008260000160009054906101000a900473ffffffffffffffffffffffffffffffffffffffff1673ffffffffffffffffffffffffffffffffffffffff168260405161066890611d22565b60006040518083038185875af1925050503d80600081146106a5576040519150601f19603f3d011682016040523d82523d6000602084013e6106aa565b606091505b50509050806106ee576040517f08c379a00000000000000000000000000000000000000000000000000000000081526004016106e590611d83565b60405180910390fd5b847ff440aec6b52895984d061d622e6edeba6210f7c3e059be920663140c084560d78460000160009054906101000a900473ffffffffffffffffffffffffffffffffffffffff1684604051610744929190611e02565b60405180910390a25050505050565b806000548110610798576040517f08c379a000000000000000000000000000000000000000000000000000000000815260040161078f90611b21565b60405180910390fd5b600060016000848152602001908152602001600020905080600401544210156107f6576040517f08c379a00000000000000000000000000000000000000000000000000000000081526004016107ed90611bf9565b60405180910390fd5b8060030154816005015410610840576040517f08c379a000000000000000000000000000000000000000000000000000000000815260040161083790611e77565b60405180910390fd5b60006002600085815260200190815260200160002060003373ffffffffffffffffffffffffffffffffffffffff1673ffffffffffffffffffffffffffffffffffffffff168152602001908152602001600020549050600081116108d8576040517f08c379a00000000000000000000000000000000000000000000000000000000081526004016108cf90611ee3565b60405180910390fd5b60006002600086815260200190815260200160002060003373ffffffffffffffffffffffffffffffffffffffff1673ffffffffffffffffffffffffffffffffffffffff1681526020019081526020016000208190555060003373ffffffffffffffffffffffffffffffffffffffff168260405161095490611d22565b60006040518083038185875af1925050503d8060008114610991576040519150601f19603f3d011682016040523d82523d6000602084013e610996565b606091505b50509050806109da576040517f08c379a00000000000000000000000000000000000000000000000000000000081526004016109d190611f4f565b60405180910390fd5b847f7ca5472b7ea78c2c0141c5a12ee6d170cf4ce8ed06be3d22c8252ddfc7a6a2c43384604051610a0c929190611f6f565b60405180910390a25050505050565b806000548110610a60576040517f08c379a0000000000000000000000000000000000000000000000000000000008152600401610a5790611b21565b60405180910390fd5b8160016000828152602001908152602001600020600401544210610ab9576040517f08c379a0000000000000000000000000000000000000000000000000000000008152600401610ab090611fe4565b60405180910390fd5b6001600082815260200190815260200160002060060160009054906101000a900460ff1615610b1d576040517f08c379a0000000000000000000000000000000000000000000000000000000008152600401610b1490612050565b60405180910390fd5b60003411610b60576040517f08c379a0000000000000000000000000000000000000000000000000000000008152600401610b57906120bc565b60405180910390fd5b346002600085815260200190815260200160002060003373ffffffffffffffffffffffffffffffffffffffff1673ffffffffffffffffffffffffffffffffffffffff1681526020019081526020016000206000828254610bc0919061210b565b9250508190555034600160008581526020019081526020016000206005016000828254610bed919061210b565b92505081905550827f0b5b4c52969ff7329ecf7ee536409fda87812b15a8622bc6e8cdeab3aee14a263334604051610c26929190611f6f565b60405180910390a2505050565b6000606080600080600080876000548110610c83576040517f08c379a0000000000000000000000000000000000000000000000000000000008152600401610c7a90611b21565b60405180910390fd5b6000600160008b815260200190815260200160002090508060000160009054906101000a900473ffffffffffffffffffffffffffffffffffffffff1681600101826002018360030154846004015485600501548660060160009054906101000a900460ff16858054610cf490611aa4565b80601f0160208091040260200160405190810160405280929190818152602001828054610d2090611aa4565b8015610d6d5780601f10610d4257610100808354040283529160200191610d6d565b820191906000526020600020905b815481529060010190602001808311610d5057829003601f168201915b50505050509550848054610d8090611aa4565b80601f0160208091040260200160405190810160405280929190818152602001828054610dac90611aa4565b8015610df95780601f10610dce57610100808354040283529160200191610df9565b820191906000526020600020905b815481529060010190602001808311610ddc57829003601f168201915b5050505050945098509850985098509850985098505050919395979092949650565b60606000805467ffffffffffffffff811115610e3a57610e3961183f565b5b604051908082528060200260200182016040528015610e7357816020015b610e6061133a565b815260200190600190039081610e585790505b50905060005b60005481101561107f57600160008281526020019081526020016000206040518060e00160405290816000820160009054906101000a900473ffffffffffffffffffffffffffffffffffffffff1673ffffffffffffffffffffffffffffffffffffffff1673ffffffffffffffffffffffffffffffffffffffff168152602001600182018054610f0790611aa4565b80601f0160208091040260200160405190810160405280929190818152602001828054610f3390611aa4565b8015610f805780601f10610f5557610100808354040283529160200191610f80565b820191906000526020600020905b815481529060010190602001808311610f6357829003601f168201915b50505050508152602001600282018054610f9990611aa4565b80601f0160208091040260200160405190810160405280929190818152602001828054610fc590611aa4565b80156110125780601f10610fe757610100808354040283529160200191611012565b820191906000526020600020905b815481529060010190602001808311610ff557829003601f168201915b505050505081526020016003820154815260200160048201548152602001600582015481526020016006820160009054906101000a900460ff1615151515815250508282815181106110675761106661213f565b5b60200260200101819052508080600101915050610e79565b508091505090565b60008083116110cb576040517f08c379a00000000000000000000000000000000000000000000000000000000081526004016110c2906121ba565b60405180910390fd5b42821161110d576040517f08c379a000000000000000000000000000000000000000000000000000000000815260040161110490612226565b60405180910390fd5b6000855111611151576040517f08c379a000000000000000000000000000000000000000000000000000000000815260040161114890612292565b60405180910390fd5b600060016000805481526020019081526020016000209050338160000160006101000a81548173ffffffffffffffffffffffffffffffffffffffff021916908373ffffffffffffffffffffffffffffffffffffffff160217905550858160010190816111bd9190612454565b50848160020190816111cf9190612454565b508381600301819055508281600401819055506000816005018190555060008160060160006101000a81548160ff0219169083151502179055506000547f633109eec20320eded000fc1e2634211aa7e92ba3f5b15faf6dcdafca05094e43360405161123b9190612526565b60405180910390a260008081548092919061125590612541565b919050555060016000546112699190612589565b915050949350505050565b60008260005481106112bb576040517f08c379a00000000000000000000000000000000000000000000000000000000081526004016112b290611b21565b60405180910390fd5b6002600085815260200190815260200160002060008473ffffffffffffffffffffffffffffffffffffffff1673ffffffffffffffffffffffffffffffffffffffff1681526020019081526020016000205491505092915050565b6002602052816000526040600020602052806000526040600020600091509150505481565b6040518060e00160405280600073ffffffffffffffffffffffffffffffffffffffff16815260200160608152602001606081526020016000815260200160008152602001600081526020016000151581525090565b6000819050919050565b6113a28161138f565b82525050565b60006020820190506113bd6000830184611399565b92915050565b6000604051905090565b600080fd5b600080fd5b6113e08161138f565b81146113eb57600080fd5b50565b6000813590506113fd816113d7565b92915050565b600060208284031215611419576114186113cd565b5b6000611427848285016113ee565b91505092915050565b600073ffffffffffffffffffffffffffffffffffffffff82169050919050565b600061145b82611430565b9050919050565b61146b81611450565b82525050565b600081519050919050565b600082825260208201905092915050565b60005b838110156114ab578082015181840152602081019050611490565b60008484015250505050565b6000601f19601f8301169050919050565b60006114d382611471565b6114dd818561147c565b93506114ed81856020860161148d565b6114f6816114b7565b840191505092915050565b60008115159050919050565b61151681611501565b82525050565b600060e082019050611531600083018a611462565b818103602083015261154381896114c8565b9050818103604083015261155781886114c8565b90506115666060830187611399565b6115736080830186611399565b61158060a0830185611399565b61158d60c083018461150d565b98975050505050505050565b60006115a482611430565b9050919050565b6115b481611599565b82525050565b600060e0820190506115cf600083018a6115ab565b81810360208301526115e181896114c8565b905081810360408301526115f581886114c8565b90506116046060830187611399565b6116116080830186611399565b61161e60a0830185611399565b61162b60c083018461150d565b98975050505050505050565b600081519050919050565b600082825260208201905092915050565b6000819050602082019050919050565b61166c81611450565b82525050565b600082825260208201905092915050565b600061168e82611471565b6116988185611672565b93506116a881856020860161148d565b6116b1816114b7565b840191505092915050565b6116c58161138f565b82525050565b6116d481611501565b82525050565b600060e0830160008301516116f26000860182611663565b506020830151848203602086015261170a8282611683565b915050604083015184820360408601526117248282611683565b915050606083015161173960608601826116bc565b50608083015161174c60808601826116bc565b5060a083015161175f60a08601826116bc565b5060c083015161177260c08601826116cb565b508091505092915050565b600061178983836116da565b905092915050565b6000602082019050919050565b60006117a982611637565b6117b38185611642565b9350836020820285016117c585611653565b8060005b8581101561180157848403895281516117e2858261177d565b94506117ed83611791565b925060208a019950506001810190506117c9565b50829750879550505050505092915050565b6000602082019050818103600083015261182d818461179e565b905092915050565b600080fd5b600080fd5b7f4e487b7100000000000000000000000000000000000000000000000000000000600052604160045260246000fd5b611877826114b7565b810181811067ffffffffffffffff821117156118965761189561183f565b5b80604052505050565b60006118a96113c3565b90506118b5828261186e565b919050565b600067ffffffffffffffff8211156118d5576118d461183f565b5b6118de826114b7565b9050602081019050919050565b82818337600083830152505050565b600061190d611908846118ba565b61189f565b9050828152602081018484840111156119295761192861183a565b5b6119348482856118eb565b509392505050565b600082601f83011261195157611950611835565b5b81356119618482602086016118fa565b91505092915050565b60008060008060808587031215611984576119836113cd565b5b600085013567ffffffffffffffff8111156119a2576119a16113d2565b5b6119ae8782880161193c565b945050602085013567ffffffffffffffff8111156119cf576119ce6113d2565b5b6119db8782880161193c565b93505060406119ec878288016113ee565b92505060606119fd878288016113ee565b91505092959194509250565b611a1281611599565b8114611a1d57600080fd5b50565b600081359050611a2f81611a09565b92915050565b60008060408385031215611a4c57611a4b6113cd565b5b6000611a5a858286016113ee565b9250506020611a6b85828601611a20565b9150509250929050565b7f4e487b7100000000000000000000000000000000000000000000000000000000600052602260045260246000fd5b60006002820490506001821680611abc57607f821691505b602082108103611acf57611ace611a75565b5b50919050565b7f43616d706169676e20646f6573206e6f74206578697374000000000000000000600082015250565b6000611b0b60178361147c565b9150611b1682611ad5565b602082019050919050565b60006020820190508181036000830152611b3a81611afe565b9050919050565b7f4f6e6c792063726561746f720000000000000000000000000000000000000000600082015250565b6000611b77600c8361147c565b9150611b8282611b41565b602082019050919050565b60006020820190508181036000830152611ba681611b6a565b9050919050565b7f43616d706169676e206163746976650000000000000000000000000000000000600082015250565b6000611be3600f8361147c565b9150611bee82611bad565b602082019050919050565b60006020820190508181036000830152611c1281611bd6565b9050919050565b7f416c726561647920636c6f736564000000000000000000000000000000000000600082015250565b6000611c4f600e8361147c565b9150611c5a82611c19565b602082019050919050565b60006020820190508181036000830152611c7e81611c42565b9050919050565b7f546172676574206e6f7420726561636865640000000000000000000000000000600082015250565b6000611cbb60128361147c565b9150611cc682611c85565b602082019050919050565b60006020820190508181036000830152611cea81611cae565b9050919050565b600081905092915050565b50565b6000611d0c600083611cf1565b9150611d1782611cfc565b600082019050919050565b6000611d2d82611cff565b9150819050919050565b7f5769746864726177206661696c65640000000000000000000000000000000000600082015250565b6000611d6d600f8361147c565b9150611d7882611d37565b602082019050919050565b60006020820190508181036000830152611d9c81611d60565b9050919050565b6000819050919050565b6000611dc8611dc3611dbe84611430565b611da3565b611430565b9050919050565b6000611dda82611dad565b9050919050565b6000611dec82611dcf565b9050919050565b611dfc81611de1565b82525050565b6000604082019050611e176000830185611df3565b611e246020830184611399565b9392505050565b7f5461726765742072656163686564000000000000000000000000000000000000600082015250565b6000611e61600e8361147c565b9150611e6c82611e2b565b602082019050919050565b60006020820190508181036000830152611e9081611e54565b9050919050565b7f4e6f7468696e6720746f20726566756e64000000000000000000000000000000600082015250565b6000611ecd60118361147c565b9150611ed882611e97565b602082019050919050565b60006020820190508181036000830152611efc81611ec0565b9050919050565b7f526566756e64206661696c656400000000000000000000000000000000000000600082015250565b6000611f39600d8361147c565b9150611f4482611f03565b602082019050919050565b60006020820190508181036000830152611f6881611f2c565b9050919050565b6000604082019050611f8460008301856115ab565b611f916020830184611399565b9392505050565b7f43616d706169676e20656e646564000000000000000000000000000000000000600082015250565b6000611fce600e8361147c565b9150611fd982611f98565b602082019050919050565b60006020820190508181036000830152611ffd81611fc1565b9050919050565b7f43616d706169676e20636c6f7365640000000000000000000000000000000000600082015250565b600061203a600f8361147c565b915061204582612004565b602082019050919050565b600060208201905081810360008301526120698161202d565b9050919050565b7f446f6e6174696f6e206d7573742062652067726561746572207468616e203000600082015250565b60006120a6601f8361147c565b91506120b182612070565b602082019050919050565b600060208201905081810360008301526120d581612099565b9050919050565b7f4e487b7100000000000000000000000000000000000000000000000000000000600052601160045260246000fd5b60006121168261138f565b91506121218361138f565b9250828201905080821115612139576121386120dc565b5b92915050565b7f4e487b7100000000000000000000000000000000000000000000000000000000600052603260045260246000fd5b7f546172676574206d7573742062652067726561746572207468616e2030000000600082015250565b60006121a4601d8361147c565b91506121af8261216e565b602082019050919050565b600060208201905081810360008301526121d381612197565b9050919050565b7f446561646c696e65206d75737420626520696e20746865206675747572650000600082015250565b6000612210601e8361147c565b915061221b826121da565b602082019050919050565b6000602082019050818103600083015261223f81612203565b9050919050565b7f5469746c652063616e6e6f7420626520656d7074790000000000000000000000600082015250565b600061227c60158361147c565b915061228782612246565b602082019050919050565b600060208201905081810360008301526122ab8161226f565b9050919050565b60008190508160005260206000209050919050565b60006020601f8301049050919050565b600082821b905092915050565b6000600883026123147fffffffffffffffffffffffffffffffffffffffffffffffffffffffffffffffff826122d7565b61231e86836122d7565b95508019841693508086168417925050509392505050565b600061235161234c6123478461138f565b611da3565b61138f565b9050919050565b6000819050919050565b61236b83612336565b61237f61237782612358565b8484546122e4565b825550505050565b600090565b612394612387565b61239f818484612362565b505050565b5b818110156123c3576123b860008261238c565b6001810190506123a5565b5050565b601f821115612408576123d9816122b2565b6123e2846122c7565b810160208510156123f1578190505b6124056123fd856122c7565b8301826123a4565b50505b505050565b600082821c905092915050565b600061242b6000198460080261240d565b1980831691505092915050565b6000612444838361241a565b9150826002028217905092915050565b61245d82611471565b67ffffffffffffffff8111156124765761247561183f565b5b6124808254611aa4565b61248b8282856123c7565b600060209050601f8311600181146124be57600084156124ac578287015190505b6124b68582612438565b86555061251e565b601f1984166124cc866122b2565b60005b828110156124f4578489015182556001820191506020850194506020810190506124cf565b86831015612511578489015161250d601f89168261241a565b8355505b6001600288020188555050505b505050505050565b600060208201905061253b60008301846115ab565b92915050565b600061254c8261138f565b91507fffffffffffffffffffffffffffffffffffffffffffffffffffffffffffffffff820361257e5761257d6120dc565b5b600182019050919050565b60006125948261138f565b915061259f8361138f565b92508282039050818111156125b7576125b66120dc565b5b9291505056fea26469706673582212201e843bd8fa2dd5c68b602fd51c0a4477fbb3c73f2f3286ced039a89838fb2c7b64736f6c634300081c0033",
  "linkReferences": {},
  "deployedLinkReferences": {}
}